:020000040000FA
:0600000093EF10F0120066
:06000800F29E60EF0EF015
:06002A000300C0210000EC
:10003000600000003A000000BE210000A4000000A3
:10004000020000003E2100000004000080000000CB
:10005000D9CFE6FFE1CFD9FF020EE126DE6ADD6AE5
:1000600021D8F3CFDEFFF4CFDDFF78D8F3CFDEFF6A
:10007000F4CFDDFF56EC07F0DECF14F0DDCF15F046
:1000800014C0F3FF15C0F4FF020EE15C03E200D0E0
:10009000E16AE552E16EE552E7CFD9FF1200F29E28
:1000A00089DB1200D9CFE6FFE1CFD9FF030EE126AD
:1000B000DE6ADD6A010EF36E020EF3CFDBFF000194
:1000C000606B010E616F626B020E656F600E666F92
:1000D000000E676F600E686F000E696F020EDB50D6
:1000E000146E156A050E145C000E155824E2020EFB
:1000F000DB500A0DF3CFE9FFF4CFEAFF600EE926EB
:10010000000EEA22020EE926000EEA22020EDBCFE2
:10011000EFFFDB500A0DF3CFE9FFF4CFEAFF600EEB
:10012000E926000EEA22050EE926000EEA22EF6A11
:10013000020EDB2AD3D7DECF14F0DDCF15F014C0CA
:10014000F3FF15C0F4FF030EE15C03E200D0E16AA7
:10015000E552E16EE552E7CFD9FF1200D9CFE6FFB5
:10016000E1CFD9FF020EE126DE6ADD6A0001600EF2
:10017000926F000E936FE8EC03F0F3CFDEFFF4CF45
:10018000DDFFDECF14F0DDCF15F014C0F3FF15C096
:10019000F4FF020EE15C03E200D0E16AE552E16E99
:1001A000E552E7CFD9FF1200D9CFE6FFE1CFD9FF63
:1001B000020EE126DE6ADD6A0001962B000E97230F
:1001C00096C0E6FF97C0E6FFDCEC0CF0E552E55286
:1001D00000019807000E995B9851991134E192C083
:1001E000E9FF93C0EAFF050EEB5002080AE192C056
:1001F000E9FF93C0EAFF050EE926000EEA22010E90
:10020000EF6E92C0E9FF93C0EAFF060EE926000EEA
:10021000EA22EECF92F0EDCF93F092C0E9FF93C0C7
:10022000EAFF050EE926000EEA22020EEF6E92C0EA
:10023000E9FF93C0EAFF030EE926000EEA22EECFA3
:1002400098F0EDCF99F0DECF14F0DDCF15F014C0AB
:10025000F3FF15C0F4FF020EE15C03E200D0E16A97
:10026000E552E16EE552E7CFD9FF1200D9CFE6FFA4
:10027000E1CFD9FF600E0001921902E1000E93193F
:1002800001E0E1D092C0E9FF93C0EAFF060EE92643
:10029000000EEA22EECF14F0EFCF15F0600E141826
:1002A00002E1000E151852E1FE0EDB500A0DF3CFED
:1002B00014F0F4CF15F0600E1426000E1522FE0E79
:1002C000DB500A0DF3CFE9FFF4CFEAFF600EE92619
:1002D000000EEA22060EE926000EEA2214C0EEFF06
:1002E00015C0EDFFFE0EDB500A0DF3CF14F0F4CF76
:1002F00015F0600E1426000E1522FE0EDB500A0DBE
:10030000F3CFE9FFF4CFEAFF600EE926000EEA2200
:10031000080EE926000EEA2214C0EEFF15C0EDFF1C
:10032000FE0EDB500A0DF3CF14F0F4CF15F0600E83
:100330001426000E152292C0E9FF93C0EAFF060EB4
:1003400014C0EBFF070E15C0EBFF7CD0FE0EDB5098
:100350000A0DF3CF14F0F4CF15F0600E1426000E42
:10036000152292C0E9FF93C0EAFF080EE926000EAD
:10037000EA22EE50EFCFEAFFE96E060EE926000E04
:10038000EA2214C0EEFF15C0EDFFFE0EDB500A0D91
:10039000F3CF14F0F4CF15F0600E1426000E1522E2
:1003A00092C0E9FF93C0EAFF060EE926000EEA229A
:1003B000EE50EFCFEAFFE96E080EE926000EEA22C2
:1003C00014C0EEFF15C0EDFF92C0E9FF93C0EAFF35
:1003D000060EE926000EEA22EECF14F0EFCF15F05C
:1003E000FE0EDB500A0DF3CFE9FFF4CFEAFF600EFB
:1003F000E926000EEA22060EE926000EEA2214C0C3
:10040000EEFF15C0EDFF92C0E9FF93C0EAFF080EB2
:10041000E926000EEA22EECF14F0EFCF15F0FE0E23
:10042000DB500A0DF3CFE9FFF4CFEAFF600EE926B7
:10043000000EEA22080EE926000EEA2214C0EEFFA2
:1004400015C0EDFF51D092C0E9FF93C0EAFF080E3E
:10045000E926000EEA22EECF14F0EFCF15F0FE0EE3
:10046000DB500A0DF3CFE9FFF4CFEAFF600EE92677
:10047000000EEA22080EE926000EEA2214C0EEFF62
:1004800015C0EDFFFE0EDB500A0DF3CF14F0F4CFD4
:1004900015F0600E1426000E152292C0E9FF93C0DD
:1004A000EAFF080EE926000EEA22EE50EFCFEAFF3F
:1004B000E96E060EE926000EEA2214C0EEFF15C012
:1004C000EDFFFE0EDB500A0DF3CFE9FFF4CFEAFF9C
:1004D000600EE926000EEA22060EE926000EEA2248
:1004E00092C0EEFF93C0EDFFFE0EDB500A0DF3CF7E
:1004F00014F0F4CF15F0600E1426000E152292C0F1
:10050000E9FF93C0EAFF080E14C0EBFF090E15C007
:10051000EBFF010EF36EF46A00D0E552E7CFD9FF8E
:100520001200D9CFE6FFE1CFD9FF92C0E9FF93C017
:10053000EAFF060EE926000EEA22EECF14F0EFCF16
:1005400015F000019251141802E19351151806E0BC
:10055000600E921902E1000E931915E192C0E9FFB5
:1005600093C0EAFF060EE926000EEA22600EEE6E48
:10057000000EED6E600E686F000E696F600E666FA4
:10058000000E676F4ED0FE0EDB500A0DF3CFE9FF71
:10059000F4CFEAFF600EE926000EEA22060EE926F5
:1005A000000EEA22EECF14F0EFCF15F092C0E9FF73
:1005B00093C0EAFF080EE926000EEA22EE50EFCFC4
:1005C000EAFFE96E060EE926000EEA2214C0EEFFED
:1005D00015C0EDFFFE0EDB500A0DF3CFE9FFF4CF9F
:1005E000EAFF600EE926000EEA22080EE926000E58
:1005F000EA22EECF14F0EFCF15F092C0E9FF93C0DE
:10060000EAFF060EE926000EEA22EE50EFCFEAFFDF
:10061000E96E080EE926000EEA2214C0EEFF15C0AE
:10062000EDFF010EF36EF46A00D0E552E7CFD9FF7B
:100630001200D9CFE6FFE1CFD9FFF29EFE0EDB50CC
:100640000A0DF3CFE9FFF4CFEAFF600EE926000EB2
:10065000EA22050EE926000EEA22EF5008E1FD0E1F
:10066000DB5005E00001942B000E952318D0FE0E00
:10067000DB500A0DF3CFE9FFF4CFEAFF600EE92665
:10068000000EEA22050EE926000EEA22EF5007E0EE
:10069000FD0EDB5004E100019407000E955BFD0E9A
:1006A000DB0429E1FE0EDB500A0DF3CFE9FFF4CFA6
:1006B000EAFF600EE926000EEA22050EE926000E8A
:1006C000EA22EF0417E0FE0EDB500A0DF3CFE9FF3C
:1006D000F4CFEAFF600EE926000EEA22050EE926B5
:1006E000000EEA22EF50020805E0FE0EDBCFE6FF27
:1006F000BDDDE55228D0FE0EDB500A0DF3CFE9FF39
:10070000F4CFEAFF600EE926000EEA22050EE92684
:10071000000EEA22EF0412E0FE0EDB500A0DF3CFCA
:10072000E9FFF4CFEAFF600EE926000EEA22050E8B
:10073000E926000EEA22EF50020805E1FE0EDBCFAB
:10074000E6FFEFDEE552FE0EDB500A0DF3CFE9FFC8
:10075000F4CFEAFF600EE926000EEA22050EE92634
:10076000000EEA22FD0EDBCFEFFFF28E010EF36EDC
:10077000F46A00D0E552E7CFD9FF120092C0E9FF3A
:1007800093C0EAFF020EEB5000D0120094C0F3FFBA
:1007900095C0F4FF00D0120096C0F3FF97C0F4FF9D
:1007A00000D012000001966B976B010EF36EF46A95
:1007B00000D0120011EE00F021EE00F0FC6ADDEC3A
:1007C00005F030EC07F0F28ED9EC0CF0FDD71200FA
:1007D000D9CFE6FFE1CFD9FF050EE126DE6ADD6A5B
:1007E000020EDB6A030EDB6A040EDB6AD56AD09E5A
:1007F000F28AF294D950030FE66E000EDA20E66E0C
:10080000D950020FE66E000EDA20E66E6F0EE66E2D
:10081000120EE66E830EE66E3A0EE66E2CD8146E5D
:10082000080EE15E1450F3CFDEFFF4CFDDFF030EC0
:10083000DBCFE6FF040EDBCFE6FF020EDBCFE6FFE9
:100840007AD9E552E552E552F3CFDEFFF4CFDDFF72
:10085000DECF14F0DDCF15F014C0F3FF15C0F4FFA8
:10086000050EE15C03E200D0E16AE552E16EE5527B
:10087000E7CFD9FF1200D9CFE6FFE1CFD9FF070EAE
:10088000E126DE6ADD6A020EDB6A030EDB6A040E15
:10089000DB6A050EDB6A060EDB6AFB0EDBCF1CF0A3
:1008A000FC0EDBCF1DF0FD0EDBCF1EF0FE0EDBCF0E
:1008B0001FF00C6A0D6A800E0E6EBF0E0F6E1CC00C
:1008C00007F01DC008F01EC009F01FC00AF032EC8E
:1008D0000BF007C018F008C019F009C01AF00AC0E0
:1008E0001BF0800E0C6E960E0D6E980E0E6E4B0E5B
:1008F0000F6E18C007F019C008F01AC009F01BC02D
:100900000AF032EC0BF007C014F008C015F009C073
:1009100016F00AC017F00C6A0D6A0E6A410E0F6ECF
:1009200014C007F015C008F016C009F017C00AF08F
:10093000DFEC0AF0030E07C0DBFF040E08C0DBFF8C
:10094000050E09C0DBFF060E0AC0DBFF146A156A3C
:10095000166A400E176ED950030FE96EDACFEAFF20
:10096000EECF07F0EECF08F0EECF09F0EFCF0AF0B0
:1009700014C00CF015C00DF016C00EF017C00FF02B
:1009800032EC0BF00AC0EDFF09C0EDFF08C0EDFF2F
:1009900007C0EFFF020EDB50146E156A080E145CE0
:1009A000000E155801E3B4D0146A156A166A400E99
:1009B000176ED950030FE96EDACFEAFFEECF07F0DA
:1009C000EECF08F0EECF09F0EFCF0AF014C00CF034
:1009D00015C00DF016C00EF017C00FF0DFEC0AF0D6
:1009E0000AC0EDFF09C0EDFF08C0EDFF07C0EFFF33
:1009F000030EDBCF14F0040EDBCF15F0050EDBCFBA
:100A000016F0060EDBCF17F0800E0C6E030E0D6E87
:100A1000800E0E6EC70E0F6E14C007F015C008F0E2
:100A200016C009F017C00AF0F5EC0BF0010A6DE0F2
:100A3000030EDBCF18F0040EDBCF19F0050EDBCF71
:100A40001AF0060EDBCF1BF00C6A0D6A0E6AC10E9F
:100A50000F6E18C007F019C008F01AC009F01BC0CB
:100A60000AF0ECEC0BF0010A50E0800E146E030E5D
:100A7000156E800E166E470E176ED950030FE96E75
:100A8000DACFEAFFEECF07F0EECF08F0EECF09F0B5
:100A9000EFCF0AF014C00CF015C00DF016C00EF028
:100AA00017C00FF049EC0AF00AC0EDFF09C0EDFFD6
:100AB00008C0EDFF07C0EFFF010EDE6EDD6AF90E24
:100AC000DBCFE9FFFA0EDBCFEAFF020EDBCFEFFF51
:100AD000030EDBCF07F0040EDBCF08F0050EDBCFF3
:100AE00009F0060EDBCF0AF0BDEC0BF008C014F0E5
:100AF00009C015F0F70EDBCFE9FFF80EDBCFEAFFF8
:100B000014C0EEFF15C0EDFF03D0020EDB2A42D762
:100B1000DECF14F0DDCF15F014C0F3FF15C0F4FFE5
:100B2000070EE15C03E200D0E16AE552E16EE552B6
:100B3000E7CFD9FF1200D9CFE6FFE1CFD9FFFE0EF4
:100B4000DB40E8403F0B010BE8B0D584E8A0D5942A
:100B5000FE0EDB407F0B010BE8B0D582E8A0D592FA
:100B6000FE0EDB50010BE8B0D580E8A0D590FC0E5E
:100B7000DBCF14F0FD0EDBCF15F015C014F0156AB5
:100B80001450D76EFF0EE76EFC0EDBCF14F0FD0E97
:100B9000DBCF15F0E7501416156A1450D66E010E0F
:100BA000F36EF46A00D0E552E7CFD9FF1200F28469
:100BB000010EF36EF46A00D01200D58E010EF36EB2
:100BC000F46A00D01200D59E010EF36EF46A00D0D4
:100BD0001200D9CFE6FFE1CFD9FF050EE126DE6A8C
:100BE000DD6A010EF36E020EF3CFDBFF990EF36E9A
:100BF000030EF3CFDBFF040EDB6AF29E020EDB5026
:100C0000146E156A050E145C000E155801E314D11C
:100C1000020EDB500A0DF3CFE9FFF4CFEAFF600EBE
:100C2000E926000EEA22050EE926000EEA22EF5020
:100C300001E0FFD0020EDB50DE6EDD6A020EDB50FB
:100C4000166E176A16C008F017C009F0030EDBCF46
:100C50000DF0040EDBCF0EF09FEC0BF006C014F08D
:100C600007C015F0290E1426010E1522DECFE9FF6C
:100C7000DDCFEAFF0A0EEA02F3CFEAFF0A0EE9022D
:100C8000F3CFE9FFF450EA26600EE926000EEA22CF
:100C900014C0EEFF15C0EDFFDECFE9FFDDCFEAFFA8
:100CA0000A0EEA02F3CFEAFF0A0EE902F3CFE9FFE8
:100CB000F450EA26600EE926000EEA22EECF14F088
:100CC000EFCF15F0290E145E000E155ADECFE9FFA6
:100CD000DDCFEAFF0A0EEA02F3CFEAFF0A0EE902CD
:100CE000F3CFE9FFF450EA26600EE926000EEA226F
:100CF000EE50EFCFEAFFE96E250EE95E000EEA5AEC
:100D000014C0EEFF15C0EDFFDECFE9FFDDCFEAFF37
:100D10000A0EEA02F3CFEAFF0A0EE902F3CFE9FF77
:100D2000F450EA26600EE926000EEA22EE50EFCFDC
:100D3000EAFFE96EE906000EEA5A010EEF6EDECF19
:100D4000E9FFDDCFEAFF0A0EEA02F3CFEAFF0A0E5F
:100D5000E902F3CFE9FFF450EA26600EE926000E1F
:100D6000EA22EE50EFCFEAFFE96E040EE95E000ED4
:100D7000EA5AFC0EDBCFEEFFFD0EDBCFEEFFFE0EE0
:100D8000DBCFEEFFDECFE9FFDDCFEAFF0A0EEA029E
:100D9000F3CFEAFF0A0EE902F3CFE9FFF450EA26A7
:100DA000600EE926000EEA22060EE926000EEA226F
:100DB000EE6AED6ADECFE9FFDDCFEAFF0A0EEA0256
:100DC000F3CFEAFF0A0EE902F3CFE9FFF450EA2677
:100DD000600EE926000EEA22080EE926000EEA223D
:100DE000EE6AED6AFB0EDBCFE6FF020EDBCFE6FF1D
:100DF00019EC03F0E552E552DECFE9FFDDCFEAFF63
:100E00000A0EEA02F3CFEAFF0A0EE902F3CFE9FF86
:100E1000F450EA26600EE926000EEA22030EE926C7
:100E2000000EEA22F90EDBCFEEFFFA0EDBCFEDFF6C
:100E300003D0020EDB2AE2D6F28EDECF14F0DDCF35
:100E400015F014C0F3FF15C0F4FF00D0050EE15CEF
:100E500002E2E16AE552E16EE552E7CFD9FF120006
:100E60006D86010EF36EF46A00D0120068966896E3
:100E700068966896100EE66EE66AE66A700EE66E92
:100E80000F0EE66E81EC0FF0146E050EE15E14504D
:100E90007088708470827188718471826E6A686AE9
:100EA0006A6A010EF36EF46A00D01200DFDF6F9EF3
:100EB0006F9C6F886F966F846F926F906D9A6D982C
:100EC0006D946D920401000E026F050E036F400ECB
:100ED000066F050E076F800E0E6F050E0F6F880EE2
:100EE000006F080E046F0C6F400E016F056B0D6BE9
:100EF000696A6B6A69866980A19AA08AF28C010E80
:100F0000F36EF46A00D01200D9CFE6FFE1CFD9FF2B
:100F1000060EE126DE6ADD6A050EDB6AD950FE0F99
:100F2000146EFF0EDA20156E020E14C0DBFF030EE6
:100F300015C0DBFF010EE66ED950020FE96EDACF65
:100F4000EAFFEECFE6FFEECFE6FFEECFE6FFEFCF14
:100F5000E6FF0C0EE66E040EE66E1BD8146E070E4E
:100F6000E15E1450F3CFDEFFF4CFDDFFDECF14F0EF
:100F7000DDCF15F014C0F3FF15C0F4FF060EE15CE1
:100F800003E200D0E16AE552E16EE552E7CFD9FF16
:100F90001200D9CFE6FFE1CFD9FF020EE126DE68CD
:100FA000DD68FD0EDBCFE9FFFE0EDBCFEAFFEF5081
:100FB000146E156A1450800B71E1010EDE6EDD6A4D
:100FC000FC0EDB50146E156A010E141801E1155069
:100FD00022E1F80EDBCFE6FFE66AF90EDBCFE6FF93
:100FE000FA0EDBCFE6FFFB0EDBCFE6FFFD0EDBCF1D
:100FF000E9FFFE0EDBCFEAFF020EE926000EEA2231
:10100000EECFE6FFEFCFE6FF5EEC0FF0146E070EBB
:10101000E15E14501ED0F80EDBCFE6FFE66AF90E53
:10102000DBCFE6FFFA0EDBCFE6FFFD0EDBCFE9FFFD
:10103000FE0EDBCFEAFF020EE926000EEA22EECF1B
:10104000E6FFEFCFE6FF33EC0FF0146E060EE15E25
:101050001450FD0EDBCFE9FFFE0EDBCFEAFFEE52B0
:10106000F80EDBCFEFFF400E146EFD0EDBCFE9FF75
:10107000FE0EDBCFEAFF1450EF16FD0EDBCFE9FFCB
:10108000FE0EDBCFEAFFEF7C880E146EFD0EDBCF89
:10109000E9FFFE0EDBCFEAFF1450EF12DECF14F0B3
:1010A000DDCF15F014C0F3FF15C0F4FF020EE15CB4
:1010B00003E200D0E16AE552E16EE552E7CFD9FFE5
:1010C0001200D9CFE6FFE1CFD9FF020EE126DE689C
:1010D000DD68800E0501005D01E0A1D00351030A27
:1010E00059E0010A2EE0030A03E0DE6ADD6A97D0C8
:1010F000FD0EDBCFE9FFFE0EDBCFEAFF030EE92694
:10110000000EEA22010EEF6E360E146E1F0E156EE3
:10111000166AFD0EDBCFE9FFFE0EDBCFEAFF14C03F
:10112000EEFF15C0EEFF16C0EEFFFB0EDBCFE9FFB2
:10113000FC0EDBCFEAFF120EEF6E010EDE6EDD6AF3
:101140006ED0FD0EDBCFE9FFFE0EDBCFEAFF030E14
:10115000E926000EEA22010EEF6E480E146E1F0EF5
:10116000156E166AFD0EDBCFE9FFFE0EDBCFEAFF40
:1011700014C0EEFF15C0EEFF16C0EEFFFB0EDBCF76
:10118000E9FFFC0EDBCFEAFF3C0EEF6E010EDE6ED8
:10119000DD6A45D0FD0EDBCFE9FFFE0EDBCFEAFFB7
:1011A000030EE926000EEA22010EEF6E0251F66EE2
:1011B000F76AD890F636F736E60EF6261F0EF722B7
:1011C0000900F5CF14F00800F5CF15F0166AFD0EF2
:1011D000DBCFE9FFFE0EDBCFEAFF14C0EEFF15C048
:1011E000EEFF16C0EEFFFD0EDBCFE9FFFE0EDBCFFC
:1011F000EAFFEECFF6FFEECFF7FFEFCFF8FF0800E4
:10120000F550E66EFB0EDBCFE9FFFC0EDBCFEAFF0D
:10121000E552E750EF6E010EDE6EDD6A00D0DECFE4
:1012200014F0DDCF15F014C0F3FF15C0F4FF020E6B
:10123000E15C03E200D0E16AE552E16EE552E7CFFE
:10124000D9FF12006850400B01E0010E146E156AC0
:10125000010E141801E1155001E1689C6850200B43
:1012600001E0010E146E156A010E141801E115500B
:1012700001E1689A6850100B01E0010E146E156AC6
:10128000010E141801E1155001E168986850080B2F
:1012900001E0010E146E156A010E141801E11550DB
:1012A00029E16C50146E156A040E141801E11550F2
:1012B0000DE16E50146E156A1450151002E102C54E
:1012C0006EFF0401400E016F008F13D06C50146E3E
:1012D000156A145015100DE104010051040DF33886
:1012E0000F0B146E156A0D0E141801E1155001E173
:1012F00027D868966850040B01E0010E146E156A39
:10130000010E141801E1155002E16D9268946850C5
:10131000020B01E0010E146E156A010E141801E1B2
:10132000155002E16A6A68926850010B146E156AE2
:10133000010E141801E1155001E198DDA19A120087
:10134000D9CFE6FFE1CFD9FF080EE126DF6A010E13
:10135000DB6A020EDB6A030EDB6A040EDB6A050E33
:10136000DB6A060EDB6A05010151060A05E0050E7F
:10137000DB6A060EDB6A16D0D950040FE66E000E4B
:10138000DA20E66ED9CFE6FFDACFE6FF9ADEE55245
:10139000E552E552E552050EF3CFDBFF060EF4CF22
:1013A000DBFF00D005010051800B01E0010E146E3F
:1013B000156A010E141801E1155053E1070EDB6A9E
:1013C000D950050FE96EDACFEAFF010EEE1801E100
:1013D000ED5043E1040EDB50146E156A1450065DA7
:1013E0001550075903E2040E06C5DBFF040EDB505F
:1013F000146E156A400ED8801454000E155406E27F
:10140000400EF36E070EF3CFDBFF06D0040EDB5069
:10141000E76E070EE7CFDBFF040EDBCFE7FF070E1B
:10142000DB50E75E040EE7CFDBFF070EDBCFE6FF06
:10143000D9CFE9FFDACFEAFFEECFE6FFEECFE6FF46
:10144000EECFE6FFEFCFE6FF040EE66E040EE66E8B
:10145000A0DD146E070EE15E14500401880E006FCB
:1014600004D00401056BC80E006F400E016FC80E5A
:10147000046F6D98010EF36EF46A080EE15C03E2EE
:1014800000D0E16AE552E16EE552E7CFD9FF1200E4
:101490000F7E016AABEC0CF0C3EC0CF001B653EF1D
:1014A0000CF001A20AD001AA03D001BE53EF0CF048
:1014B00001A45FEF0CF05CEF0CF001AA05D001ACC9
:1014C0005FEF0CF05CEF0CF001A00AD001A808D08F
:1014D00001BE04D001A402D068EF0CF06CEF0CF058
:1014E000126A056A0F500A5C116E10E307C013F010
:1014F00008C002F009C003F00AC010F00CC007F0E9
:101500000DC008F00EC009F0013A09D00CC013F06C
:101510000DC002F00EC003F00FC010F0116C019E60
:1015200001BC018E10C004F001B09BEF0CF01A0E4C
:1015300011609BEF0CF0046A0A6A01A408D0076CE2
:10154000081E091E0A1EE86A082209220A2201ACA6
:1015500008D0136C021E031E041EE86A0222032236
:101560000422066A115207E00A34093208320732AF
:101570000632112EF9D707501326085002220950BF
:1015800003220A50042206C012F0019E04AE0BD0C2
:10159000126C131E021E031E041EE86A132202228E
:1015A00003220422018E04A006D0D8800332023226
:1015B00013321232102A10C004F06FEF0CF0016ADF
:1015C000ABEC0CF0C3EC0CF001B653EF0CF001A245
:1015D00005D001BA53EF0CF05AEF0CF001BA66EFE8
:1015E0000CF001A005D001B853EF0CF066EF0CF041
:1015F00001B85AEF0CF0056A7F0E0A24046EE86AFF
:1016000005220F50045EE86A055A1A0E106E0A6A27
:10161000126A136A026A036A0C50075E0D50085A78
:101620000E50095A000E0A5A09E70C5007260D50B1
:1016300008220E500922000E0A2201D0128AD890E8
:101640000736083609360A36D8901236133602366F
:101650000336102EE1D7095008100710D8A4128ABB
:101660006FEF0CF0016AABEC0CF0C3EC0CF001B6C0
:1016700053EF0CF001A205D001B853EF0CF05AEF74
:101680000CF001AA05D001B053EF0CF05AEF0CF0AA
:1016900001B002D001A802D066EF0CF0056A0F502D
:1016A0000A24046EE86A05227E0E045EE86A055A82
:1016B000126A136A026A036A0E500902F4CF03F039
:1016C000F3CF02F00D500902F3501326F45002221A
:1016D000000E03220E500802F3501326F45002228B
:1016E000000E03220C500902F3501226F45013226C
:1016F000000E022203220D500802F3501226F4506D
:101700001322000E022203220E500702F35012266B
:10171000F4501322000E022203220C500802F4504F
:101720001226000E1322022203220D500702F4504B
:101730001226000E1322022203226FEF0CF008C0C3
:1017400012F008500D02F4CF07F0F3CF06F0095065
:101750000E02F4CF09F0F3CF08F00D02F350072684
:10176000F4500822E86A092212500E02F3500726AC
:10177000F4500822E86A0922000C016AABEC0CF074
:1017800001B6C7EF0BF001A20ED001B405D07F0E59
:10179000096EFF0E086E1FD0800E096E086A1BD0FE
:1017A000096A086A18D001B0FBD78F0E0A60EDD71E
:1017B0007E0E0A64F5D78E0E0A5C05E0D8900932D9
:1017C00008320A2AF8D701A406D0086C091EE86A74
:1017D000092209AEE5D71200FEEC0BF001B6000CB1
:1017E00001B0000C01B4000C010CFEEC0BF001B6D2
:1017F000000C01B0000C01A4000C010C016AABEC60
:101800000CF0C3EC0CF001B6120001AE08D001A040
:1018100004D001A802D001801200019012000F50E4
:101820000A5C0BE10E50095C08E10D50085C05E113
:101830000C50075C02E101801200D8A002D0018E9A
:1018400010D00A500FC00AF00F6E09500EC009F0F8
:101850000E6E08500DC008F00D6E07500CC007F05A
:101860000C6E0F500A5C10E0FF0F09E0019001B40C
:1018700003D001AE0184120001AE019412000F2AC0
:10188000D8900E320D320C320C50075E0D50085AB3
:101890000E50095A09BEEAD7D890073608360936DD
:1018A0000A2EF8D7C8D77F0E0A6EFF0E096E086E93
:1018B000076E12007F0E01BEFF0E0A6E02D07F0E71
:1018C0000A6E800E096E086A076AF3D701AE04D06B
:1018D000800E0A6E096AF7D70A6A096AF4D70350BC
:1018E000021013101210F8E005BEF0D703BE0CD0A2
:1018F00004500510EBE0D89012361336023603364A
:101900000406D8A00506F2D70550D4E10428D2E099
:1019100012AE11D07F0E121402E113A00CD0132AC4
:10192000E86A0222032207E3D8800332023213322C
:10193000042A0428BFE00450C9E013C007F002C025
:1019400008F00334096E04300A6E09320A9E01BEA3
:101950000A8E59EF0CF009360A3602E30184017E43
:1019600006E101800A6A096A086A076A12000A2801
:1019700003E0D88009321200D890093202E10182D6
:101980001200018612000E360F3602E3018C017E32
:1019900006E101880F6A0E6A0D6A0C6A12000F28B0
:1019A00003E0D8800E321200D8900E32EAE1018AAC
:0219B000120023
:0E19B2001200838E1200D9CFE6FFE1CFD9FFDD
:1019C000FAD88378D950FD0FE96EFF0EDA20EA6E5F
:1019D0001E0EEE1801E1ED5002E1837A0ED0D950CF
:1019E000FD0FE96EFF0EDA20EA6E3C0EEE1801E103
:1019F000ED5003E1837CD2EC03F0E552E7CFD9FF51
:101A0000120083908392839483968398839A839C15
:101A1000839E956A010EF36EF46A00D01200D9CF4E
:101A2000E6FFE1CFD9FF020EE126DE6ADD6A8370B0
:101A3000FED7020EE15C02E2E16AE552E16EE55298
:101A4000E7CFD9FF1200D9CFE6FFE1CFD9FF020ED1
:101A5000E126DE6ADD6A8372FED7020EE15C02E2F5
:101A6000E16AE552E16EE552E7CFD9FF1200D9CF26
:101A7000E6FFE1CFD9FF020EE126DE6ADD6A83745C
:101A8000C6EC03F0F3CF14F0F4CF15F0050E145CA0
:101A9000000E155815E2010EE66EE66AE66ED60EE9
:101AA000146E1A0E156E166A14C0E6FF15C0E6FF16
:101AB00016C0E6FFE9EC05F0176E060EE15E175062
:101AC000DED7020EE15C02E2E16AE552E16EE55228
:101AD000E7CFD9FF1200D9CFE6FFE1CFD9FF020E41
:101AE000E126DE6ADD6A8376E66ABEEC03F0E66E26
:101AF00019EC03F0E552E552F3CFDEFFF4CFDDFF42
:101B0000D7EC05F0020EE15C02E2E16AE552E16E1B
:101B1000E552E7CFD9FF1200819081928194939092
:101B200093929384010EF36EF46A00D01200D9CF21
:101B3000E6FFE1CFD9FF020EE126DF6A010EDB6A84
:101B4000819281908150040B040A01E0010E800D06
:101B5000F350DF6E010EDB50146E156A070E145C35
:101B6000000E155819E281828192010EDBCFE6FF4B
:101B7000060EE552D880E754146E8150040B040A17
:101B800001E0010E145204E0E846FE0B1406FCE1ED
:101B9000DF12010EDB2ADED78180DF50146E020EC9
:101BA000E15C03E200D0E16AE552E16E1450E552D7
:101BB000E7CFD9FF1200D9CFE6FFE1CFD9FF030E5F
:101BC000E126DE6ADD6A020EDB6AB1DFE76E020E35
:101BD000E7CFDBFFDBCFE6FF84EC07F0E552F3CF86
:101BE000DEFFF4CFDDFF010EF36EF46A030EE15C5D
:101BF00003E200D0E16AE552E16EE552E7CFD9FF9A
:101C00001200D9CFE6FFE1CFD9FF040EE126DE6A4C
:101C1000DD6A020EDB6A030EDB6AD190020EDB2A5C
:101C2000DBCF14F0030E01E3DB2ADBCF15F01450F9
:101C3000151001E0F3D7020EDB2ADBCF14F0030E00
:101C400001E3DB2ADBCF15F01450151001E0F3D7C8
:101C5000020EDB2ADBCF14F0030E01E3DB2ADBCF1D
:101C600015F01450151001E0F3D72A0EE66EE66A5F
:101C70003C0EE66E45EC10F0E552E552E552EC0EF6
:101C8000E66E82EC10F0E552BCDEF3CFDEFFF4CF5F
:101C9000DDFF42DFF3CFDEFFF4CFDDFF28EC00F005
:101CA000F3CFDEFFF4CFDDFF4FEC00F0040EE15C7C
:101CB00002E2E16AE552E16EE552E7CFD9FF120098
:101CC000E8CFE4FFD8CFE4FFE0CFE4FFD9CFE4FFD3
:101CD000DACFE4FFE9CFE4FFEACFE4FFF5CFE4FF9A
:101CE000F6CFE4FFF7CFE4FFF8CFE4FFF3CFE4FF54
:101CF000F4CFE4FF09C0E4FF08C0E4FF07C0E4FF3D
:101D000006C0E4FF01C0E4FF05C0E4FF04C0E4FF37
:101D100003C0E4FF02C0E4FF0EC0E4FF0DC0E4FF17
:101D20000CC0E4FF0BC0E4FF0AC0E4FF0FC0E4FFF7
:101D300013C0E4FF12C0E4FF11C0E4FF10C0E4FFD1
:101D400005C0E4FF04C0E4FF03C0E4FF02C0E4FFF9
:101D5000FCCFF3FFE86AFDCFE4FFFECFE4FFFFCF47
:101D6000E4FF0600FC12F7E1F3CFE4FFF3CFE4FF5A
:101D700092C0E9FF93C0EAFFE1CFEEFFE2CFEEFFB2
:101D8000F2B403D0A1AADAEC0CF0A1BA22EC09F06B
:101D9000F2B4D4EC00F092C0E9FF93C0EAFFEECFBA
:101DA000E1FFEECFE2FFE5CFE9FFE5CFE9FFFCCFB2
:101DB000E8FFE95CE8CFF3FFFC2AE5CFE8FFFF6E20
:101DC000E5CFE8FFFE6EE5CFE8FFFD6EF306F4E138
:101DD000E5CF02F0E5CF03F0E5CF04F0E5CF05F065
:101DE000E5CF10F0E5CF11F0E5CF12F0E5CF13F01D
:101DF000E5CF0FF0E5CF0AF0E5CF0BF0E5CF0CF023
:101E0000E5CF0DF0E5CF0EF0E5CF02F0E5CF03F022
:101E1000E5CF04F0E5CF05F0E5CF01F0E5CF06F022
:101E2000E5CF07F0E5CF08F0E5CF09F0E5CFF4FF07
:101E3000E5CFF3FFE5CFF8FFE5CFF7FFE5CFF6FFFE
:101E4000E5CFF5FFE5CFEAFFE5CFE9FFE5CFDAFF24
:101E5000E5CFD9FFE5CFE0FFE5CFD8FFE5CFE8FF3D
:061E6000F294D58E100083
:0A1E6600D9CFE6FFDACFE6FFFA0E4F
:101E7000E3CFD9FFFB0EE3CFDAFFFC0EE3CFE9FFA0
:101E8000FD0EE3CFEAFFE9CFF3FFEACFF4FFF80E50
:101E9000E35003E1F90EE35008E0F80EE30602E236
:101EA000F90EE306DECFEEFFF2D7FF0EE3CFDAFF47
:101EB000E552FF0EE3CFD9FFE5521200FB0EE3CF50
:101EC000F6FFFC0EE3CFF7FFFD0EE3CFF8FFFE0EAB
:101ED000E3CFE9FFFF0EE3CFEAFFE9CFF3FFEACF5D
:101EE000F4FFF90EE35003E1FA0EE35009E0F90EB6
:101EF000E30602E2FA0EE3060900F5CFEEFFF1D7A2
:101F00001200FE0EE3CFE9FFFF0EE3CFEAFFE9CFB9
:101F1000F3FFEACFF4FFFB0EE35003E1FC0EE350C6
:101F200009E0FB0EE30602E2FC0EE306FD0EE350C1
:061F3000EE6EF1D7120075
:0A1F36001201000202000040D8046E
:101F40000A0000000102000109023C0002010080B9
:101F500032090400000102020100052400100104FE
:101F60002402020524060001052401000107058161
:101F70000308000209040100010A000000070581AE
:101F800002400000040309044003440069006700A4
:101F90006900500065006E00200049006E0073006B
:101FA00074006900740075007400650020006F0003
:101FB0006600200054006500630068006E006F003A
:101FC0006C006F00670079001E034E00450053004F
:101FD000200043006F006E00740072006F006C0000
:0C1FE0006C0065007200841F881FC81F81
:041FEC002A0EF66E55
:101FF000000EF76E000EF86E00010900F5509F6F9D
:102000000900F550A06F03E19F6701D03DD00900A2
:10201000F5509A6F0900F5509B6F0900F5509C6FC1
:1020200009000900F550E96E0900F550EA6E090053
:1020300009000900F5509D6F0900F5509E6F0900D9
:102040000900F6CFA1F0F7CFA2F0F8CFA3F09AC025
:10205000F6FF9BC0F7FF9CC0F8FF00019D5302E113
:102060009E5307E00900F550EE6E9D07F8E29E07CB
:10207000F9D7A1C0F6FFA2C0F7FFA3C0F8FF000187
:0A2080009F07000EA05BBFD71200FF
:06208A00D9CFE6FFDACF1A
:10209000E6FFE1CFD9FFE2CFDAFFAC6AAB6AFD0E13
:1020A000DBB0AC88DBA202D0AC8CAB8CDBB4AC8EEA
:1020B000DBA602D0AB8801D0AB8ADBA802D0AC840F
:1020C00001D0AC949E98DBAC02D09D8A01D09D9A41
:1020D0009E9ADBAE02D09D8801D09D98FB0EDB500E
:1020E000AF6EFB0EFC0EDBCF15F015C014F0156AB9
:1020F0001450B06EAC8AAB8EE552E5CFDAFFE7CF75
:04210000D9FF1200F1
:0C210400D9CFE6FFDACFE6FFE1CFD9FF2C
:10211000E2CFDAFFFD0EDB50B86EE552E5CFDAFF15
:06212000E7CFD9FF120019
:0A21260011EE00F021EE00F0F86A5F
:0E213000019CF6EC0FF001EC0EF0FDD7120052
:02213E0000009F
:10214000000000000000000000000000000000008F
:10215000000000000000000000000000000000007F
:10216000000000000000000000000000000000006F
:10217000000000000000000000000000000000005F
:10218000000000000000000000000000000000004F
:10219000000000000000000000000000000000003F
:1021A000000000000000000000000000000000002F
:0E21B000000000000000000000000000000021
:0221BE0000001F
:1021C000000000000000000000000000000000000F
:1021D00000000000000000000000000000000000FF
:1021E00000000000000000000000000000000000EF
:0A21F00000000000010000000100E3
:00000001FF
